:020000021000EC
:10000000E03F082095010100FB000100E100010034
:10001000090101001901010029010100000000008F
:100020000000000000000000000000004178010016
:100030003901010000000000A17801005901010010
:10004000597E0100597E0100597E0100597E010050
:10005000597E0100597E0100597E0100597E010040
:10006000597E0100597E0100597E0100597E010030
:10007000597E0100597E0100597E0100597E010020
:10008000597E0100597E0100597E0100597E010010
:10009000597E0100597E0100597E0100597E010000
:1000A000597E0100597E0100597E0100597E0100F0
:1000B000597E0100597E0100597E0100597E0100E0
:1000C000597E0100597E0100597E01006C15020025
:1000D00000C00720FC02000000C30720A8040000A5
:1000E00004207146084203D0EFF3098007F0D2BE26
:1000F000EFF3088007F0CEBE704708B5014805F061
:10010000BBF9FEE76E0F020008B5024805F0B4F92E
:10011000FEE700BF790F020008B5024805F0ACF910
:10012000FEE700BF840F020008B5024805F0A4F9FD
:10013000FEE700BF8F0F020008B5024805F09CF9EA
:10014000FEE700BF9C0F020008B5024805F094F9D5
:10015000FEE700BFAA0F020008B507F027FB07F073
:10016000C1FBBDE8084007F035BB0B4610B5401A8F
:100170005C1AA24203D9C45843F8044BF8E710BDF7
:10018000034610B500221C1AA14202D943F8042BE1
:10019000F9E710BD164807F03DFC154807F03DFC97
:1001A000144C154DAC4201D3144D07E094E8030004
:1001B0000C3454F8042CFFF7D8FFF3E7AC4206D216
:1001C00054F8080B54F8041CFFF7DAFFF6E709F0BF
:1001D00077FA07F02FFC00F04DFA01F0D5F84FF454
:1001E000164007F075FF064805F046F9FEE700BF28
:1001F000E03F0820CC000100D8000100E000010031
:10020000BE0F020007F02EBB07F03CBB144B10B52D
:100210001A68014612B94FF080521A60114C1868E2
:100220002468421894421A6007D20F4CA24204D8A4
:100230000E4A0B488C18046010460D4A1B68126861
:10024000934222BF064B00201A6039B1094A136855
:1002500001331360084B1860084B196010BD00BFD4
:1002600004C307200CC30720FFBF0720A8C707202F
:1002700010C3072014C3072000C3072008C30720AA
:1002800009F05EBA09F064BA30B504468BB068462E
:1002900009F012FD224B079A2360089B214DA360B1
:1002A00062602149214B52B90A68186882428ABFAC
:1002B00002F1604202F17042A2F5E82262606268D7
:1002C0001B68B2F5803F82BF02F17042A2F5E822BE
:1002D00062600022E2600A68934206D3991AC5F16F
:1002E000005303F504230B440BE0114B1B689342AE
:1002F00008D9991AC5F1005303F5F8230B44002BD4
:1003000000DDE36020460B4BE2611B68A3610A4BF2
:100310001B686361094B1B6823610BB030BD00BFD4
:10032000A8070000A8C7072004C307200CC30720A4
:1003300010C3072000C3072008C3072014C30720E9
:1003400000207047034A044B1A60044A044B1A60A9
:10035000704700BF008000100CC307200040082039
:1003600010C30720014B1860704700BF20C307204F
:10037000014B1860704700BF18C3072008B502483A
:100380000AF042FCFEE700BF08FC010008B5024885
:100390000AF03AFCFEE700BF22FC01000020704793
:1003A00001207047F8B5084B16461A680F461C46E0
:1003B00042B10D46EB1B9E4204DD236815F8010B8C
:1003C0009847F7E73046F8BD20C30720F8B5094B3A
:1003D0000F46186816461C4658B10D46EB1B9E4248
:1003E00005DD23680020984705F8010BF6E726EAAB
:1003F000E670F8BD18C30720704700207047FFFF64
:10040000074B1B689A68824207D05A68824204D020
:10041000DB681B1A5842584170470120704700BFE3
:1004200040C10720002070470020704730B50446C7
:100430008DB0A8B3684605F08FFB9DF8003000250D
:1004400003F03F0303939DF8013003A803F03F033B
:1004500004939DF802300B9503F01F0305939DF85C
:10046000043003F01F0306939DF8053003F00F03DB
:10047000013B0793BDF80630C3F30B03A3F26C7383
:1004800008939DF8033003F007030993BDF8083083
:10049000C3F30B03013B0A9309F09CFA84E82100A3
:1004A00000200DB030BDFFFF70B50F4D0F4E2C6812
:1004B00014F0010415D1284608F0AAF988B14FF4C8
:1004C0000E70FFF7DDFE302380F835323A2380F8D6
:1004D000344280F8363280F837423060284608F0DF
:1004E000A3F9306870BD00BF3CC3072040C307209C
:1004F00038B5064C236833B93420FFF7C1FE0546F2
:1005000005F0C6FA2560206838BD00BF2CC307205F
:1005100001480AF079BB00BF3CFC010038B5044635
:100520000D4607F083FD074BB0FBF3F00223B0FB51
:10053000F3F2AA4204D9B3F5807F01D00233F6E783
:10054000236138BD40420F007FB500F235260C46CE
:100550000122314604F016F8054648BB039002AA72
:1005600003A9304604F06BFB00BB0298039A837822
:1005700002FB03F182691348023A5A435208B2F56A
:10058000004F38BF0120104B4FEA510124BF0346F2
:100590004FF48060B1FBF0F1B2FBF0F200910193F7
:1005A00021460A480AF0BEFA012008E0084B00E0A4
:1005B000084B2A46214608480AF0B4FA002004B045
:1005C00070BD00BF7AFC010077FC010084FC0100D3
:1005D00080FC01007DFC0100B2FC010038B5074C35
:1005E00023684BB90820FFF74BFE0546FFF780FF55
:1005F000402328602B712560206838BD4CC307203C
:1006000038B5054C256825B90120FFF739FE05707E
:100610002060206838BD00BF48C3072038B5084CAB
:1006200023685BB90C20FFF72BFE0546FFF760FF40
:1006300090232B7100232860AB602560206838BDB3
:1006400024C3072010B5044C23681BB90120FFF711
:1006500017FE2060206810BD28C3072010B5044C89
:1006600023681BB90120FFF70BFE2060206810BD36
:1006700044C30720AD49AE4A4023F0B58B614FF02B
:10068000007393614FF480338B61AA4BADF5057D08
:100690001868072520F0F00018601868022440F060
:1006A00050001860186820F440501860086840F046
:1006B00040000860186820F47C201860186840F436
:1006C00028201860186820F470001860186840F43A
:1006D00020001860186820F040401860186840F04A
:1006E00000401860586820F03C005860586840F09E
:1006F00028005860586820F003005860086840F4EB
:1007000080300860586820F440505860086820F431
:1007100080000860D96821F44031D960116841F047
:1007200080711160596821F440215960596841F481
:10073000802159609868804901409960116841F4AE
:10074000897141F001011160996821F4701199607B
:10075000996821F070419960116821F44641116057
:10076000D96821F03001D960D96841F03001D960F1
:10077000D96821F47011D960136843F000731360D5
:10078000136823F08063136004F0D0FF01210A2076
:1007900007F06CFA01210A2007F080FA674801216E
:1007A00005604460FFF7BAFE05F09AFA01211520B2
:1007B00007F05CFA0121152007F070FA604801216A
:1007C00005604460FFF7AAFEFFF792FE642105F082
:1007D0002BF910B95B480AF017FA07F083FA01F019
:1007E0008BFE10B958480AF00FFA4FF4FA6004F083
:1007F0001AFFFFF78DFE07F019FC08F017FB5349AD
:1008000008F020FC08F098F902460B4650480AF020
:1008100089F907F009F9052804AC14D100236360B5
:100820004C4B1B682360FFF773FE4B4B4B48D96C56
:100830001A6D5B6D00940AF075F9FFF769FE41F2DD
:10084000883004F0F0FEFFF72FFE4549FFF77CFEED
:10085000054668BB43480AF065F902F047FFFFF719
:1008600023FE29462A4600F2352004F04DFA3E4B7D
:100870003E4A00280CBF104618460AF0C5F9FFF79B
:1008800013FE3749FFF760FE90B939480AF0BCF90A
:1008900002F0D8FE014637480AF044F902F0C2FEE1
:1008A000054602F0CFFE00FB05F133480AF03AF9A5
:1008B000324E334F336813F0010516D1304607F03E
:1008C000A7FF90B14FF40E70FFF7DAFC012380F818
:1008D0003432312380F835323A2380F8363280F8CA
:1008E00037523860304607F09FFF26493868264D5A
:1008F000FFF72AFE18211148FFF710FEFFF708FE48
:100900002B684BB90820FFF7BBFC0646FFF7F0FD4C
:100910003823306033712E60286801F0D9FE054617
:10092000B0BB1A480AF070F933E000BF00C00920DC
:1009300020C0092000C00240F0FCFCFF0000034082
:1009400000800840FDFC01002EFD010000247449D8
:1009500053FD010044400240004002406BFD010095
:10096000E3FD0100EBFD0100EAFC0100E5FC0100F4
:1009700028FE010047FE010056FE010034C3072097
:1009800038C3072071FE010054C3072079FE01001F
:100990000125FFF743FE01F09BFF064618B9724898
:1009A0000AF032F93546FFF719FE01F013FF06464B
:1009B00018B96E480AF028F935466D4E33681BB9F0
:1009C0000120FFF75DFC3060306801F0D1FEFFF7D9
:1009D00039FE01F069FFFFF713FE01F034FFFFF766
:1009E0003DFE01F066FFFFF70BFE002101F02EFF38
:1009F0008DB9FFF78DFDFFF7F1FD2D2101F0D2FE3E
:100A0000FFF7ECFD2D2101F0D9FEFFF7F9FDFF21E5
:100A100001F01CFF0CE0FFF7E1FD0546FFF7FEFDCE
:100A200001F080FF08F0AAFBC1B2284601F0EEFEFB
:100A300010220021204608F0E8FE00230F22214664
:100A40004C4801F081FF80B9204608F04EFDC5B248
:100A5000284600F043FF484A484B2946002818BF63
:100A60001346444A46480AF05DF8FFF7EBFD01F0F3
:100A70001DFF054600200BF08BFA28440AF0CCF845
:100A80004FF400720021204608F0BFFE204607F018
:100A900069F921463B480AF045F8FFF739FD802205
:100AA0000021204608F0B1FE204602F0A7FD227882
:100AB000FF2A04D0214634480AF034F829E0FFF731
:100AC000CDFD01F0F9FE09281DD130480AF09CF84F
:100AD00021462F480AF0A4F921462E480AF022F8B0
:100AE0002D480AF091F8002303A92C4803930AF03B
:100AF00097F99DF80C30592B03D1204602F05CFD8C
:100B000007E0274803E027480AF07EF826480AF065
:100B10007BF84FF208031D684FF20C031C684FF27C
:100B200010031E684FF470431A684FF20403AD0AB5
:100B30001968A40A1D4809F0F5FF2A4621461C48F9
:100B400009F0F0FF31461B4809F0ECFFFFF7E0FC2D
:100B5000012004F027FC18480AF056F8FFF7D8FCEB
:100B60000DF5057DF0BD00BF94FE0100AEFE010055
:100B700050C30720C7FE0100F0FC0100F6FC010095
:100B8000CDFE010001FF010004FF010020FF010074
:100B900042FF010047FF010062FF0100A5FF0100C5
:100BA000A9FF0100C1FF0100EFFF010021000200C9
:100BB0004D0002007A0002009700020010B5044CBC
:100BC00023681BB90120FFF75BFB2060206810BD84
:100BD00050C307200E4A38B553680E4C43F48013B7
:100BE0005360032004F0DCFD054620680022036802
:100BF00009491B689847B5F5FA7F084802DA01F001
:100C00000AFD01E001F00DFD642006F0E3FBE8E7DA
:100C100000C002406CC3072000C0072070C307203B
:100C200010B5074C204604F034FD204604F031FD99
:100C3000204604F034FDBDE81040012004F0DEBC85
:100C400060C30720044B9860DA68D206FCD4024BDC
:100C50009868C0B2704700BF0000034010B504465A
:100C600007F0E4F9074BB0FBF3F00223B0FBF3F21B
:100C7000A24204D9B3F5807F01D00233F6E7024ADD
:100C8000136110BD40420F000000034010B5044640
:100C9000024B036005F098F9204610BD440D020098
:100CA00010B50446FFF7F2FF2046FFF7EBFA2046A7
:100CB00010BDFFFF012808B503D1BDE80840FFF7CC
:100CC000AFBF50B9054804F0E4FC044804F0E7FC69
:100CD000BDE80840012004F091BC08BD60C30720B6
:100CE00008B5044804F0DBFCBDE808403C2004F0F3
:100CF00085BC00BF60C3072010B520240020FFF78B
:100D0000D9FF013CFAD110BD10B56FF00704072CD4
:100D100003D90020FFF7CEFF01E0FFF781FF013488
:100D2000182CF4D110BD10B50024072C02DCFFF7FD
:100D300077FF02E00020FFF7BDFF0134202CF4D143
:100D400010BD10B56FF00F04072C03D90020FFF77A
:100D5000B1FF01E0FFF764FF0134102CF4D110BDA6
:100D600010B50024172C02DCFFF75AFF02E0002028
:100D7000FFF7A0FF0134202CF4D110BD10B5FFF710
:100D8000AFFF1824FFF7B8FF013CFBD1BDE81040CE
:100D9000FFF7A6BF04280CD8DFE800F00305070919
:100DA0000B00FFF7B1BFFFF7BEBFFFF7CABFFFF7EA
:100DB000D7BFFFF7A1BFFFFF431E182B70B5054635
:100DC0000E4611D8FFF7DAFF0124A54203D13046C1
:100DD000FFF7E0FF01E0FFF78FFF0134192CF4D19A
:100DE000BDE87040FFF77CBF0248BDE8704009F0E5
:100DF0000BBF00BF1E010200F8B506460D461746A0
:100E0000FFF7BCFF0124A64205DCA54205DB3846FE
:100E1000FFF7C0FF05E0A54201DBAE42F7D8FFF7C0
:100E20006BFF0134192CEED1BDE8F840FFF758BF35
:100E300010B50124E0B20321FFF7BEFF01346420A6
:100E400004F0F1FB192CF5D1012003221821FFF742
:100E5000D3FFBDE810404FF47A7004F0E4BB0122E8
:100E60000C211046FFF7C8BF002218210D20FFF704
:100E7000C3BF032206211320FFF7BEBF02221221A7
:100E80000720FFF7B9BFFFFFF0B58E46124D85B0C2
:100E900069680646286801AC03C49DF82870298952
:100EA0008DF807E021808DF809208DF80A308DF843
:100EB0000C70002401AD295D4FF0FF323046013443
:100EC00005F053FB0A2CF6D140F6AC5005B0BDE856
:100ED000F04004F0A8BB00BF1401020070B5154C2F
:100EE000154D204601F09DFB0B20FFF7ABFE0E20B9
:100EF000FFF7A8FE0020FFF7A5FE2880204601F09E
:100F00008AFB204601F08DFB0B20FFF79BFE0F2094
:100F1000FFF798FE0020FFF795FE084E3080204630
:100F200001F079FB2B88308803EB0020044B80B262
:100F3000188070BD98C30720A4C30720A2C3072050
:100F4000A0C3072070B5154C154D204601F069FB74
:100F50000B20FFF777FE1020FFF774FE0020FFF74D
:100F600071FE2880204601F056FB204601F059FB17
:100F70000B20FFF767FE1120FFF764FE0020FFF74C
:100F800061FE084E3080204601F045FB2B883088FA
:100F900003EB0020044B80B2188070BD98C307207B
:100FA000A4C30720A2C30720A0C3072070B5154C17
:100FB000154D204601F035FB0B20FFF743FE1220B4
:100FC000FFF740FE0020FFF73DFE2880204601F09D
:100FD00022FB204601F025FB0B20FFF733FE1320F8
:100FE000FFF730FE0020FFF72DFE084E3080204630
:100FF00001F011FB2B88308803EB0020044B80B2FA
:10100000188070BD98C30720A4C30720A2C307207F
:10101000A0C307204A6842600A890281CA68C26088
:101020000A7C0274084A02604A6942618A698261E4
:10103000CA69C2610A6A02628A8C8284CA8CC284CA
:101040008A6A8262704700BF440D020038B50121F0
:101050000A2006F00BFE01210A2006F01FFE154BA8
:10106000072202251A60144C5D600120FFF7F6FD8F
:1010700004F036FE0420FFF7F1FD204601F0B9FA36
:10108000204601F0CEFA0A20FFF7DCFD2D20FFF705
:10109000D9FD0A4B18802846FFF7D4FD084B18806D
:1010A0000020FFF7CFFD074B18802046BDE83840F1
:1010B00001F0B1BA0000034098C30720A4C3072081
:1010C000A2C3072088C3072008B5FFF757FEFFF724
:1010D00007FEFFF7ADFE4FF47A7004F0A4FAFFF7B5
:1010E000FFFDBDE80840FFF749BEFFFF38B5064CDD
:1010F000236833B92C20FFF7C3F8054604F0DEFE61
:101100002560206838BD00BF5CC3072038B5FFF7F5
:10111000EDFF402320224FF4165104F0AFFE1E4D88
:101120001E4801F06EFA04462870C0B1FFF726FE93
:101130001B4B1B78303B032B0ED8DFE803F0020576
:10114000080BFFF796FE07E0FFF798FE04E0FFF7B5
:1011500086FE01E0FFF788FEFFF7C2FD16E0FFF70D
:101160000DFE104801F05DFA0F4804F081FA0F4BB4
:10117000186805F0BBFF0E4B186806F09FF90D4B81
:10118000186805F0B3FF204606F098F94FF47A701E
:1011900006F020F9C4E700BF78C3072080C307200A
:1011A00000C0072070C3072060C307208CC307203E
:1011B00090C3072094C30720F0B58FB0FFF796FFC8
:1011C0000546402320224FF4165104F057FE002616
:1011D000294603A88DF80B601E4CFFF71BFFEE2776
:1011E0000C21324602230DEB010000970394FFF718
:1011F0004BFE03A8FFF74AFD294603A8FFF70AFFA5
:1012000032463023062103A800970394FFF73CFEE3
:1012100003A8FFF73BFD104E00234FF0FF320DF106
:101220000B01306805F038FD78B1294603A8FFF7B7
:10123000F1FEF623009303A8012300220321039467
:10124000FFF722FE03A8FFF721FD4FF47A7006F0A6
:10125000C1F8E1E7000102007CC307202DE9F04F4F
:101260008FB0FFF73BFE0746FFF76CFE0646FFF721
:101270009DFE00238DF80B300546FFF737FFDFF8A2
:101280000481402320224FF416518146C24604F0C7
:10129000F5FD354801F0B5F988F80000D0B14946B0
:1012A00003A8FFF7B7FE314B0E21039300231A4624
:1012B000009303A8FFF7E8FD03A8FFF7E7FC2C481D
:1012C00004F0DFF92B4B186805F010FF2A4B186863
:1012D00005F00CFF9AF80030002BDAD1FFF74EFD35
:1012E000264801F09EF9224804F0C2F9214B186803
:1012F00006F0E4F8204B186806F0E0F8FFF7EEFD82
:101300000446FFF71FFE8346FFF750FE281A002809
:10131000B8BF4042B0F5FA4F10DACBEB060BBBF189
:10132000000FB8BFCBF1000BBBF5FA4F06DA3C1B40
:10133000002CB8BF6442B4F5FA4FAADBFFF7CEFD2C
:101340000746FFF7FFFD0646FFF730FE054664201F
:1013500004F069F90A4800231A460DF10B010068F0
:1013600005F094FB95E700BF80C307200001020051
:1013700060C3072090C3072068C3072070C30720FD
:101380007CC3072078C3072007B5FFF7AFFE4023D3
:1013900020224FF4165104F071FD254840232022ED
:1013A0004FF41641006804F0BDFD012100220846FB
:1013B00005F052FB1F4B18601F4804F062F91F48EC
:1013C00001F017F9FFF742FEFFF77EFE1C4B4FF4CA
:1013D00080620193022300931A4900231A4805F002
:1013E000B3FD1A4B4FF48062019304230093184914
:1013F0000023184805F0A8FD174B4FF480620193B5
:101400000323009315490023154805F09DFD154B56
:101410004FF4806201930123009313490023134882
:1014200005F092FD05F09CFE002003B05DF804FB82
:101430006CC307207CC3072060C3072070C307204C
:101440008CC3072038010200B911010068C30720CE
:101450003E0102000D11010090C307204C01020063
:10146000D50B010094C30720580102005D12010052
:10147000002238B51146184804F0E6F8174A184912
:101480001548FEF75DFF0121164801F081F8134A67
:1014900015491448FEF754FF3421144801F078F838
:1014A0000E4A11491148FEF74BFF114C33211148E8
:1014B00001F06EF8094A0C490E48FEF741FF236817
:1014C00033B92C20FEF7DCFE054604F04BFD256009
:1014D0002268094B1A6038BD60C307201CC307206F
:1014E000AB56010098C307208126010080C3072066
:1014F00058C3072070C307206CC3072010B54FF6F0
:10150000FF74242303FB0101884209D043782BB1E7
:10151000038C1344A34228BF234603842430F3E7FB
:1015200010BDFFFF37B5002302A840F8043D0C4B67
:1015300004215B6898470B4B019A1C680546141BF5
:101540001A60042122460848FFF7D8FF22460221EC
:101550000648FFF7D3FF281C18BF012003B030BD99
:10156000A8C3072078C40720BCC3072095C4072060
:1015700008B50B4B197803788B420A4B0BBF1A88BE
:101580009A880132013214BF9A801A80064B81700A
:10159000DB6820219847003018BF012008BD00BF3C
:1015A00009C007204DC40720A8C307200A4B0278B2
:1015B0001B789A42094B0BBFDA881A890132013233
:1015C0000CBFDA801A810379C3F3C202073262F3D7
:1015D000C5030371FFF7CCBF09C007204DC4072026
:1015E00010B50749002311F823409A00844202D124
:1015F0000348104410BD0133042BF4D1002010BD6A
:1016000067C4072070B1C3780133DBB2FF2BC3700E
:1016100008D105480023C118CA7804335208102B9A
:10162000CA70F8D1704700BF67C40720242202FBAC
:1016300001010346024630B5914206D014462432D9
:1016400012F8235C002DF7D10FE0044600259942E3
:101650000BD01A79C2F3C2001A8C42EA0042AA42A5
:1016600084BF1C4615462433F1E7204630BDFFFFFA
:1016700038B50546C90001F10804FFF753FF1C4BBC
:101680002A781B789A4204D102211A48FFF7CEFF2C
:101690000CE004211848FFF7C9FFEB7833B990F844
:1016A0002330042443F0800380F82330002380F8A3
:1016B000203080F8213002462B4690F8231080F825
:1016C000224021F07F01C4F306240C4380F823401C
:1016D00005F1200153F8044B8B4242F8044BF9D139
:1016E000064A0379127862F3C503037138BD00BF5F
:1016F00009C0072095C40720BCC3072008C00720E5
:1017000008B5FFF76DFF0346D8B9FFF769FF034639
:10171000B8B90D4AD378D179D07A8B4296BF1946A1
:10172000131D1346814294BF0846084BD17B084ADB
:10173000814238BF1346074900221A60CA7A013233
:10174000CA72184608BD00BF67C407206FC40720CF
:1017500073C407204DC407202DE9F84F05460C46F9
:101760004FF0240909FB0219DFF868A1DFF868B11E
:101770004E1C4FF000084C4500F09A8094F823303E
:101780001A0624D5B5B12A7861788A4205D16F78D6
:1017900016F8010C874200F08D80E87850B1687827
:1017A000884207D116F8011C914203D1A979A27988
:1017B00091427FD094F82220218C03F07F0342EAEB
:1017C0000323994271DB2046FFF7D2FE72E0627874
:1017D000002A6AD06DB3297901F0C001C02917D160
:1017E00016F8010C6978884202D12878904261D0BD
:1017F000E778A87887420CD191420AD116F8010CFB
:101800002978884205D1A079A979884201D151E08F
:1018100079B1A878E17888420BD16978914208D1F2
:1018200016F8010C2978884203D1A079A979884259
:1018300046D094F82210208C03F07F0341EA032362
:10184000984232DB237984F82080C3F3C201CFB2FF
:1018500084F821801FB12046FFF7A8FE25E003F0A1
:10186000C003C02B19D016F8010C9AF8003098422A
:1018700013D1E3789A4210D07BB16379032262F3EB
:1018800007136371E1702046FFF790FE23799BF800
:10189000002062F3C503237100E001276078FFF7A1
:1018A0009FFE08B1C0F8008027B92434243662E7CF
:1018B000BDE8F88F24220021204607F0A6FFF4E7B8
:1018C000237984F820806FF3C50384F82180237185
:1018D000EBE700BF09C0072008C00720431EDBB2AA
:1018E000FD2B9DBF024B187001200020704700BFE8
:1018F00009C00720014B1878704700BF09C00720B6
:101900002DE9F743044691461E469DF828500F46A0
:10191000002966D0364B93F80080414563D00F2EE6
:1019200061D8002861D02022002107F06EFFFF2F30
:10193000237914BF09F00302002262F38713032204
:1019400062F302032B4A6770127884F8008062F316
:10195000C503294A2371137884F802800133DBB26E
:101960001370A3710BAB019315B94FF001081BE085
:1019700004F10809019AE0791346526853F8081BEC
:1019800000EB02085FFA88F8013DB8F1180F0193E7
:10199000EDB207D8484407F012FF84F80780002D05
:1019A000E8D1E2E74FF00008DFF850900123384615
:1019B00089F80030FFF714FE0546FFF723FE0023E9
:1019C00089F80030637925B966F307136371E57010
:1019D00005E0AA7862F3071363716B78E370404601
:1019E00003E0084601E00020FFE703B0BDE8F08314
:1019F00009C0072008C007204CC4072059C407208D
:101A0000124B012270B51A7004461E4608B9002513
:101A100018E0FFF7ADFD05460028F8D0237903F064
:101A2000C003402B06D0C02B0AD1E37853B16278B3
:101A30009A4207D0617920460909FFF719FE01E0B3
:101A4000802BF7D000233370284670BD59C407207F
:101A500082B02DE9F0439146421ED2B28DB0FD2AEC
:101A600005460E4615939DF8688001D9002057E081
:101A7000002BFBD0179F002FF8D0199B002BF5D01F
:101A8000189B002BF2D0169B002BEFD04822002190
:101A9000264807F0BAFE90220021254807F0B5FE3F
:101AA00010220021234807F0B0FE234B00241C60C5
:101AB0005C609C60214B1C605C609C60204B1D70D6
:101AC000204B214D1E7015AE0FCE0FC53368182266
:101AD00021461E482B6007F098FE494617221B48F6
:101AE00009F06CFB21462046B8470028BED0B8F16B
:101AF000000F02D1FFF716FD12E006230293144BEC
:101B00002246019301230093FF2104A8FFF7F8FE6A
:101B10000028ABD004A8FFF773FF0028A6D0E9E7A0
:101B20000DB0BDE8F04302B0704700BF95C4072078
:101B3000BCC3072067C407205BC407204DC407202F
:101B400009C007205AC40720A8C307207CC4072067
:101B50006201020030B5182B8DB016D8B2FA82F4AB
:101B60001D1C18BF01256409AC420ED002930192DE
:101B700000950A469DF84030014604A8FFF7C0FED4
:101B800018B104A8FFF73CFF00E000200DB030BD05
:101B900013B5537914781B09009302460B4620466F
:101BA0000321FFF7D7FF02B010BDFFFF0023184647
:101BB000044A12F8231009B10130C0B20133042BDA
:101BC000F7D1704767C407202DE9F04188B0202283
:101BD0000021684607F019FEA14B1B7803F0FF04B3
:101BE000002B40F039819F4F20213B696846984780
:101BF000002800F084809C4D6B8801336B80FFF7D8
:101C0000D5FF9DF80420A87202F00703032B04D02F
:101C1000964A137843F0010309E0954B1D789DF82F
:101C20000230AB4205D1914A137843F0020313709E
:101C3000E4E0C2F3C2029DF800E09DF806008D4981
:101C4000D6B204EB440313F801C0F4450BD10B44A6
:101C500093F801C0844506D1997801248E1B18BFE2
:101C600001269A7018E00134042CEAD182490B68ED
:101C70009A70804A587002F10900834283F800E0AC
:101C800040F0C9800A609DF800009DF80230834250
:101C900040F0C480002426469DF80200FFF730FD86
:101CA0009DF8022002709DF802204270002282708E
:101CB000FFF7A8FC04B116B39DF80030AB4200F06A
:101CC0009C809DF80160FF2E1BD13B682021684657
:101CD000984720B9654A137843F0040313709DF8C0
:101CE000053003F00F02511C61F303038DF805303A
:101CF000C3F303139A4202DA6846FFF739FC002463
:101D00007CE0B5422BD164B99DF807304BB13B68FC
:101D100020216846984720B9544A137843F00403B9
:101D200013709DF8043003F0C003402B12D19DF8CE
:101D300007306A4613B91821504808E00C214A4878
:101D4000FFF726FF002858D100216A460846FFF712
:101D50001FFF52E09DF80330002B4ED1F4E7484BB3
:101D60001B78002BCBD09DF8054004F00F074FEAFD
:101D700014184745C3DA013767F303043046FFF709
:101D80002FFC8DF805409DF80340A54221D19DF818
:101D9000041001F0C001402906D0A1F180035A428D
:101DA0005A41144610B90CE0012260B1C0294378B1
:101DB00005D19E4203D0003318BF012304E0002365
:101DC00002E0C0290ED10346134303F0010420B9F9
:101DD00008E094B908B941460CE043788DF8033027
:101DE000857802E000258DF803506846FFF7C0FBB8
:101DF0001CB129466846FFF73BFC6C46FFF792FB97
:101E0000204604221F49FFF7A7FC02221E49204654
:101E1000FFF7A2FC20E003330B6034E785423FF478
:101E200039AFFFF76DFC0446FFF7ECFB23783BB1BD
:101E30009DF80530A27803F00F0393423FF72AAFD5
:101E40009DF8003023709DF8023063709DF80530D6
:101E5000C3F30303A3701DE708B0BDE8F08100BF22
:101E600059C40720A8C307204DC4072094C40720E5
:101E700009C007205BC4072004C007207CC40720DA
:101E80005AC40720BCC3072095C407200023184666
:101E9000094AD118497809B10130C0B22433902BD6
:101EA000F7D1064B5A780AB10130C0B293F8253009
:101EB0000BB10130C0B27047BCC3072095C40720E6
:101EC00070B53E4C4FF48035E5613D4CA060204636
:101ED000C5683B4CED06FBD4A0680D46C0B20BB9FB
:101EE00023465FE02346002A63D0072A0E782DDDC3
:101EF0009E604E78083A9E608E789E60CE789E6096
:101F00000E799E604E799E608E799E6001F1080682
:101F1000C979996099694907FCD5A1682970A168B8
:101F20006970A168A970A168E970D968C906FCD474
:101F3000A168083505F8041CA16805F8031CA16810
:101F400005F8021CA16805F8011C1AE0032A1ADD35
:101F50009E604E78043A9E608E789E600E1DC97811
:101F60009960D968C906FCD4A168043505F8041C39
:101F7000A16805F8031CA16805F8021CA16805F812
:101F8000011C3146AFE701319E60013ADE68F6067A
:101F9000FCD4A668013505F8016CA4E7E668F606EE
:101FA000FCD4A6686E1AB24203DD15F8016B9E6080
:101FB000F4E7024B4FF480329A6170BD00C00920F3
:101FC0000080084007B5002302A901F8013D012364
:101FD0001A4600F01F00FFF773FF9DF8070003B0DB
:101FE0005DF804FB13B502AC04F8011D00F01F00FE
:101FF00000230122214640F02000FFF761FF02B0DC
:1020000010BD08B51720FFF7DDFFC0F3001008BDB5
:1020100070210720FFF7E6BF0A4600230146A020F3
:10202000FFF74EBF08B50020FFF7CCFFBDE8084022
:1020300000F0FE010020FFF7D5BFFFFF024B4FF07D
:102040008072DA61704700BF20C0092008B5002007
:10205000FFF7B8FF40F00101C9B20020FFF7C2FF4F
:10206000024B4FF080729A6108BD00BF20C009206A
:1020700020210720FFF7B6BF00231A461946E120AA
:10208000FFF71EBF37B504460D46FFF7F5FF2046A4
:102090002946FFF7C1FF0D4B4FF080721C469A6135
:1020A0000022ADF80620BDF8063001339BB2ADF832
:1020B000063033B94FF08073E361FFF7DDFF03B003
:1020C00030BDFFF79EFF0028EDD0F3E720C00920C8
:1020D00008B51720FFF776FF00F0010080F001003F
:1020E00008BD40210720FFF77DBF08B50A46012340
:1020F00001466120FFF7E4FEC0F3420008BD002363
:102100001A461946E220FFF7DBBE70B506460020EE
:102110000D461446FFF756FF16B100F0BF0002E06F
:1021200040F04000C0B215B100F0DF0101E040F026
:10213000200114B101F0EF0101E041F01001002095
:10214000BDE87040FFF74EBF10B504460020FFF712
:1021500039FF14B900F0F7010DE0012C04D100F0B3
:10216000FB0141F0080106E0022C14BF40F0080119
:1021700040F00C01C9B20020BDE81040FFF732BFAB
:1021800008B50020FFF71EFFBDE8084040F002013F
:10219000C9B20020FFF726BF08B50020FFF712FFE5
:1021A000BDE8084000F0FD010020FFF71BBF40F62E
:1021B000DD13984206D840F66213B0F5166F38BFAB
:1021C000184600E01846A0F51661C9B20520FFF7D1
:1021D00009BF10B504460620FFF7F4FEFA2C00F004
:1021E000D70102D141F0200104E0B4F5FA6F08BF35
:1021F00041F008010620BDE81040FFF7F3BE10B51E
:1022000004460620FFF7DEFE032C28BF032420F03F
:10221000060040EA4401C9B20620BDE81040FFF7BD
:10222000E1BEF9284FF0FA0305D9B0F57A6F88BFFF
:102230004FF47A6000E01846B0FBF3F00F2900F18C
:10224000FF30C0B228BF0F2141EA0011C9B20420FB
:10225000FFF7C8BE1130C0B2162804D8202928BF05
:102260002021FFF7BFBE7047032804D0042814BF05
:102270000321022100E001210320FFF7B3BE0A463B
:10228000002301463020FFF71BBE0A46002301460B
:102290002A20FFF715BEFFFF73B50E46154604460C
:1022A000FFF72DFFFFF7E8FE2B4B4FF08072DA614E
:1022B000FFF772FF002211460120FFF726FFFFF70C
:1022C000A7FE0220FFF740FF3046FFF770FF2846C9
:1022D000FFF77FFF0320FFF792FF03210220FFF7A4
:1022E00081FE00210120FFF77DFE03214FF4FA70EB
:1022F000FFF797FF21460020FFF7ACFF00211220D7
:10230000FFF770FE00211320FFF76CFE0021142060
:10231000FFF768FE00211520FFF764FE002116205C
:10232000FFF760FE0D4B18681B79009005208DF8B3
:102330000430FFF799FF68460521FFF7A0FF05214C
:102340006846FFF7A2FFFFF71BFF4FF4FA6003F0A8
:1023500055F902B070BD00BF20C00920690102001C
:1023600070B5174E326822B92021032004F074FBA7
:102370003060144D2A6822B92021012004F06CFB42
:102380002860114C216821B90322012004F064FB6C
:1023900020604FF4FA6240F6C3112020FFF77CFF63
:1023A000FFF754FE1620094A012103F025FB30688F
:1023B00028B1286818B12068003018BF012070BD0E
:1023C000E4C40720E0C40720E8C407207924010002
:1023D00070B50379014603F0C003C02B0CBF0E4B50
:1023E0000E4B88B01D68002306461A46284604F0A6
:1023F0004DFB044660B9034602466946284604F090
:102400004BFC234622463146284604F03FFB044657
:10241000204608B070BD00BFE0C40720E4C4072018
:1024200038B504460D46FFF765FA237883420AD093
:10243000E37843B908F018FCBD2300F0030000FB6B
:10244000033003F0DBF8FFF7F9FDFFF7EBFDA9B26E
:102450002046FFF717FEFFF70BFEFFF7F7FD05F02D
:1024600007F9022804D1034B0021186804F0E2FBAD
:10247000012038BDE8C4072007B5002302A941F8B0
:10248000043D084B186804F0D5FB019B3BB1064B9B
:102490004FF080521A60BFF34F8FBFF36F8F03B0BE
:1024A0005DF804FBE8C4072004ED00E038B50446FD
:1024B0000D46FFF70DFE48B1A9B22046FFF715FE05
:1024C000FFF706FE08B9FFF70CFE012038BD04290E
:1024D00038B5054603D1041C18BF012400E00024D0
:1024E00005F02AFC2CB14FF47A72002306F066FE48
:1024F0002860204638BDFFFF00B50C4B8DB0099316
:102500000B4B0C4A0B930C4B0A930CAB43F8102D5E
:10251000002204920FCB8DE80F00084B084A0121DE
:102520006A20FFF795FA0DB05DF804FB6123010006
:10253000AD240100CF24010021240100D12301009A
:102540006E01020008B505F093F80F4B02285B6995
:1025500013D15A020DD5FFF799FC00280B484FF014
:10256000000314BF01224FF0FF321946006804F047
:1025700093FBBDE80840FFF727BB5B02F9D5FFF7E7
:1025800085FC0028F5D108BD00C00920E8C407205B
:10259000F0B5864687B0114F4C1101F01F0501AE12
:1025A000457004700FCF0FC670463B68032133603F
:1025B00006AB03EB840353F8143C6D00CEF80430F3
:1025C000E30003F1804303F530331A6801FA05F59F
:1025D00022EA05051D6007B0F0BD00BF74010200CE
:1025E000416840780A680123834022EA03030B60B4
:1025F0007047416840780A680123834013430B60A9
:102600007047436841785A6901238B40134214BFD5
:102610000120002070474178426801238B4093617C
:1026200070474178426801238B40D3617047FFFFB8
:1026300030B543780578064C5B0054F8352003210B
:1026400001FA03F322EA030344F8353030BD00BF3A
:1026500040C0024010B5094A04780123407821B1F6
:1026600052F8241083400B4304E052F824108340B6
:1026700021EA030342F8243010BD00BF68C00240C5
:1026800010B50446FFF7ACFF00212046FFF7E2FF3C
:102690002046FFF7CDFF204610BD13460A460179BC
:1026A000006803F020BD1FB5002204AB047923F8B5
:1026B000042D0222009200680A46214603F0FEFC27
:1026C0009DF80C009DF80D3043EA002004B010BDC9
:1026D00010B5044619222A21FFF7DFFF0D222179C8
:1026E000206803F0EFFCA0F12A035842584110BDC6
:1026F000044A13881F2B9FBF581C1080024A42F8BF
:1027000023107047F0C40720F4C40720154AF0B521
:1027100013881646012B21D9134A00201546013B88
:10272000984206DA516814680130091B42F8041B0C
:10273000F6E700210C466A684FF0010E02EB5200EA
:102740008AB2934208DD55F822700131B8423CBF8D
:102750000EFA02F21443F3E7044B1C6000233380AB
:10276000F0BD00BFF0C40720F4C40720ECC407206C
:1027700008B50121022005F079FA084B01209A6A78
:1027800022F007029A629A6A42F006029A62044AAA
:10279000D36843F03003D36008BD00BF0080004021
:1027A00000C0024008B5044B417101F07F015A5C42
:1027B0000321FFF772FF08BD8801020008B5044B32
:1027C000817101F07F015A5C0221FFF766FF08BDAD
:1027D0008801020038B504460179006803F08EFCD8
:1027E000054688B1002206212046FFF756FF002249
:1027F00007212046FFF751FF2E212046FFF7D2FF89
:102800002E212046FFF7DAFF284638BD642370B535
:10281000B1FBF3F404FB1311CCB20A21B4FBF1F5C4
:1028200001FB15413031C9B20646FFF7C7FF092C3D
:1028300088BF05F130013046BDE8704094BF2021CB
:10284000C9B2FFF7AFBF01207047FFFF38B50D4693
:10285000044605F007F805F00F032370114B15F03F
:10286000010F4FF0010214BFDA619A61227812F071
:10287000020F4FF0020214BFDA619A61227812F05F
:10288000040F4FF0100214BFDA619A61227812F03F
:10289000080F4FF4807214BFDA619A61BDE83840C6
:1028A00004F0F0BF20C0092001207047022002F090
:1028B00077BF01207047FFFF044B5B69180B00F0E6
:1028C0000C00C3F341231843704700BF20C0092008
:1028D00010B5044681220121FFF7DFFE0122217994
:1028E000206803F0EFFB10F0600F14BF0120002000
:1028F00010BD38B500210446FFF7D5FE812205B290
:1029000001212046FFF7C9FE102095FBF0F006F0EC
:1029100091FA4FF0765106F0E1FAA16806F0D6F987
:1029200038BDFFFF08B5FFF7E4FF054906F0D6FA0A
:10293000044906F087FB4FF0844106F0C7F908BD53
:10294000000010410000A040F0B5ADF50B7D0E4633
:10295000174601461D460122002301A8009301F0FD
:102960004FFE044670B91DB1294601A802F0C0F817
:102970006B463A46314601A801F0DCFE044601A848
:1029800002F0A4F820460DF50B7DF0BD7F2810B5B0
:1029900016D931B1FF2812D80A4B803833F810000D
:1029A00010BD084A32F811408BB2844203D0013185
:1029B0008029F7D10B4603F18000C0B210BD002082
:1029C00010BD00BF080202000649002331F81320A1
:1029D00032B1824201D00133F8E7034A32F81300E2
:1029E000704700BF08030200E804020010B5012090
:1029F0000C4604F0CFF82060003018BF012010BD55
:102A00000120704710B5044604F032FE02280AD1B6
:102A1000002319464FF0FF32204604F03DF9431ED3
:102A20005842584110BD012010BD10B5044604F0B5
:102A30001FFE022807D100232046BDE810401A4699
:102A4000194604F023B810BD10B5044603F0B8F9D8
:102A500024B1012C06D100F081F901E000F002FD63
:102A6000044600E0042403F0C3F9204610BD28B159
:102A7000012801D00420704700F028BA7047F8B54B
:102A800007460C4615461E4603F09AF93FB1012F42
:102A90000CD132462946204600F020FA04E03246A6
:102AA0002946204600F02AFD044600E0042403F0F5
:102AB0009FF92046F8BDF8B507460C4615461E4658
:102AC00003F07EF93FB1012F0CD132462946204652
:102AD00000F050FA04E032462946204600F030FD6E
:102AE000044600E0042403F083F92046F8BD70B5E5
:102AF00006460C46154603F063F936B1012E0AD19D
:102B00002946204600F090FA03E02946204600F0CE
:102B100037FD044600E0042403F06AF9204670BD46
:102B200008B505F009F94FF47A72002306F046FB68
:102B300008BDFFFF10B5044605F078FA074BB0FB5F
:102B4000F3F00223B0FBF3F2944202D3044A136180
:102B500010BDB3F5807FF9D00233F3E740420F0098
:102B600000000340044B9860DA68D206FCD4024BA4
:102B70009868C0B2704700BF0000034070B5FFF70F
:102B8000CFFF00F5FA74FF20FFF7ECFF0025FF20D0
:102B9000FFF7E8FFFF28064605D0FFF7C1FFA9426F
:102BA00008BFA042F3D3304670BDFFFF38B5064CD6
:102BB0004FF00075E561FFF7E1FF044AA561137866
:102BC00043F00103137038BD20C009200AC007205C
:102BD0002DE9704306460D46FFF7A2FF643080469C
:102BE0004FF00009FF20FFF7BDFFFF2808D1FFF7D6
:102BF00097FF494508BF4045F4D30020BDE87083E6
:102C0000FE28FAD1102D06D900224FF4007130466B
:102C100003F074F819E0341D0435FF20FFF7A2FF1C
:102C200004F8040CFF20FFF79DFF04F8030CFF20BD
:102C3000FFF798FF04F8020CFF20FFF793FF04341E
:102C400004F8050C2B1BDE42E7D1FF20FFF78AFFBB
:102C5000FF20FFF787FF0120BDE8708370B50646AF
:102C60000D46FFF78BFFFF28044619D12846FFF7D2
:102C700079FFFD2D16D022464FF40071304603F047
:102C80003DF82046FFF76EFF2046FFF76BFF20461A
:102C9000FFF768FF00F01F00431F5842584170BD06
:102CA000002070BD012070BD020638B504460D46F7
:102CB00007D500217720FFF7F7FF012838D804F067
:102CC0007F041C4B4FF000729A61DA61FFF756FFE8
:102CD000FF28014628D12046FFF744FF280EFFF7C2
:102CE00041FFC5F30740FFF73DFFC5F30720FFF79E
:102CF00039FFE8B2FFF736FF402C17D0482C14BF3D
:102D000001208720FFF72EFF4C2C02D10846FFF749
:102D100029FF0A21FF20FFF725FF030608D5013907
:102D200011F0FF01F6D138BDFF2038BD9520EEE748
:102D300038BD00BF20C00920064A074913784969F9
:102D4000DBB2490154BF03F0FD0343F003031370EA
:102D5000704700BF0AC0072020C009202DE9F743B3
:102D6000FFF7EAFF564B1A781E4612F0020F01D009
:102D70001878A1E00120FFF7DDFE0A24FF20013CC6
:102D8000FFF7F0FE14F0FF04F8D14E4F4FF0007340
:102D9000FB6121464020FFF787FF012802D04FF05A
:102DA000000875E0FFF7BCFE4FF4D57100F57A75A9
:102DB0004820FFF779FF012841D10DF10408FF20D9
:102DC000FFF7D0FE08F804000134042CF7D19DF879
:102DD0000630012BE3D19DF80730AA2BDFD12C461A
:102DE0000025FFF79DFEA94208BFA04206D3FFF7CA
:102DF00097FEA94208BFA042D1D207E04FF0804120
:102E0000E920FFF751FF0028EBD1F0E700217A20FD
:102E1000FFF74AFF0028C2D10146FF20FFF7A2FEBC
:102E200008F8010001310429F7D19DF8043013F0AE
:102E3000400F14BF4FF00C084FF0040828E0214663
:102E4000E920FFF731FF02282C4635BF4FF002087A
:102E50004FF001084FF0E9094FF041090025FFF755
:102E60005FFEA94208BFA0420BD3FFF759FEA9425B
:102E700008BFA0420CD34FF400715020FFF714FF9D
:102E800006E000214846FFF70FFF0028E7D1ECE7F6
:102E90000D4B83F800804FF00073BB61B8F1000F59
:102EA00007D03378182003F0FE033370FFF742FE9B
:102EB00001E0FFF77BFE3078C0B203B0BDE8F083DD
:102EC0000AC0072020C0092074C5072008B5FFF7F5
:102ED00033FF014B187808BD0AC0072070B51446AF
:102EE00006460846FFF728FF002C39D01E4B1B78FA
:102EF000DB0737D41D4B4FF00072DA611C4A1D46C8
:102F0000127812F0080F08BF4002012C01460CD1C4
:102F10005120FFF7C9FEE0B94FF400713046FFF7CA
:102F200057FEB0FA80F4640913E05220FFF7BCFEAC
:102F300078B94FF400713046FFF74AFE28B1013CE2
:102F400014F0FF0406F50076F3D100214C20FFF7C2
:102F5000ABFE4FF00073201CAB6118BF012070BDA9
:102F6000042070BD032070BD0AC0072020C00920C6
:102F700074C50720F8B5144606460F46FFF7DCFE79
:102F8000002C44D0254B1A78D20742D41B785B071B
:102F900041D4234B4FF00072DA61224A1D46127869
:102FA00012F0080F08BF7F02012C0CD139465820BF
:102FB000FFF77AFE18BBFE213046FFF74FFEB0FA4E
:102FC00080F464091CE012F0060F03D02146D720DC
:102FD000FFF76AFE39465920FFF766FE80B9FC21EB
:102FE0003046FFF73BFE28B1013C14F0FF0406F524
:102FF0000076F4D1FD210020FFF730FE00B9012456
:103000004FF00073201CAB6118BF0120F8BD0420F5
:10301000F8BD0320F8BD0220F8BD00BF0AC007209C
:1030200020C0092074C507207FB50D46FFF784FE38
:1030300005281AD12B78012B00F0048103D3022B31
:103040000BD0042001E1824B586910F0806440F0FD
:10305000F980FFF7ABFD2046F7E07D4B5B6983F01D
:103060008063C3F380636B70ECE07A4B1B78DB0703
:1030700000F1EA800E2800F2DF80DFE800F008129D
:103080004F53DDDDDDDDDDDDAAAFB2BBCB00704B24
:103090004FF00072DA61FFF771FDFF3818BF0120B1
:1030A000CBE000214920FFF7FFFD044608B10120D5
:1030B000C3E010216846FFF78BFD0028F7D09DF88C
:1030C00000309DF808109B09012B9DF8093006D1AE
:1030D000013303EB012189B2890229606BE09DF87D
:1030E00007209DF80500920002EB91119DF8062043
:1030F0000131920202F4406211449DF80A2000F06E
:103100000F0000EBD2105A00023002F006028318C2
:10311000DBB289B2093B01FA03F34BE04FF40073D1
:103120002B8059E04C4E337803F0040303F0FF0189
:10313000F3B10021CD20FFF7B7FD0028B7D1FF2064
:10314000FFF710FD10216846FFF742FD0028AED0C2
:103150003021FF20FFF706FD481E10F0FF01F8D1D7
:103160009DF80A3008461A09102393402B6064E04A
:103170004920FFF799FD0446002898D110216846A0
:10318000FFF726FD002892D036789DF80A2006F039
:10319000020606F0FF009DF80B3076B1520002F0F7
:1031A0007E0202EBD3135A1C9DF80D309B09013BA4
:1031B00002FA03F32B6020463FE0D90001F018012A
:1031C000C2F3840201EB5311531C01FB03332B6048
:1031D00033E0214B1B782B7000202EE0002149208A
:1031E00001E000214A20FFF75FFD00287FF45FAF78
:1031F00010211AE000217A20FFF756FD00287FF405
:1032000056AF291DFF20FFF7ADFC05F8010B8D42DD
:10321000F8D1E1E70021CD20FFF746FD00287FF43B
:1032200046AFFF20FFF79EFC40212846FFF7D0FC69
:10323000B0FA80F0400900E00420054B4FF0007226
:103240009A6102E0002000E0032004B070BD00BFDE
:1032500020C009200AC0072074C50720054B1B7831
:10326000253BDBB2032B9ABF034A52F82300002010
:10327000704700BF78C50720D00602001B4B2DE920
:10328000F0411D880646B5F5007F0F46144602D171
:103290002A46214613E0B5F5807F09D12A4621460A
:1032A0003846B0472A4604F5807107F5807016E06D
:1032B000B5F5047F05D1510A89024FF400723846F2
:1032C0000DE0B5F5847F0ED1140A61024FF48072CF
:1032D0003846B047611C4FF480724902B818334633
:1032E000BDE8F0411847BDE8F08100BF76C5072072
:1032F00030B52F4C03462546002958DD07291A789A
:103300002DDDA2605A780839A2609A78A260DA7836
:10331000A2601A79A2605A79A2609A79A26003F138
:103320000802DB79A360A3695B07FCD5AB68037077
:10333000AB684370AB688370AB68C370E368DB064F
:10334000FCD4AB68083000F8043CAB6800F8033CE0
:10335000AB6800F8023CAB6800F8013C1AE00329B6
:103360001ADDA2605A780439A2609A78A2601A1D08
:10337000DB78A360E368DB06FCD4AB68043000F8BC
:10338000043CAB6800F8033CAB6800F8023CAB6857
:1033900000F8013C1346AFE70133A2600139E2684F
:1033A000D206FCD4AA68013000F8012CA4E730BD95
:1033B0000000034007B50B0C8DF805308DF80710A1
:1033C0000B0A04218DF804000DEB01008DF8063086
:1033D000FFF78EFF03B05DF804FBFFFFF7B517465C
:1033E00006460E4C40250323E5618DF804300B0C96
:1033F0008DF805308DF807100B0A04210DEB010044
:103400008DF80630FFF774FF00223946304602F08F
:1034100075FCA561A561A56103B0F0BD00C00920E0
:103420000E4B4022DA610E4BD7229A601A46D168C1
:103430000B4BC906FBD49A681A46FF219960D068E5
:10344000C006FCD4906810F0800FF7D0034B4022E8
:103450009A61C0B29A619A61704700BF00C00920AA
:1034600000000340F7B5FFF7DBFF1F4C002323806C
:103470001E4B1F4E40271A889B78F7610321054693
:1034800001A8ADF804208DF80630FFF731FF9DF854
:1034900005209DF806301F2AB7612146B761B76144
:1034A0001CD1A3F12502032A18D8124A252B137028
:1034B00005F0010006D1002814BF4FF480734FF4CB
:1034C000847305E0002814BF4FF400734FF40473B5
:1034D0000B80FFF7C3FE084B400A18600888B0FA5B
:1034E00080F0400903B0F0BD76C50720C806020091
:1034F00000C0092078C507207CC50720F8B58B18C7
:1035000017460D4A013B12680446934210D84D02FB
:10351000FFF786FF00262D1BBE4204EB050209DAE9
:1035200021460648FFF7AAFE04F500740136F3E7CA
:103530000120F8BD0020F8BD7CC50720DD33010067
:10354000F8B58B1817460C4A013B126893420FD806
:1035500004460026C0EB4125BE4204EB050209DA11
:1035600021460648FFF78AFE04F500740136F3E7AA
:103570000120F8BD0020F8BD7CC5072061360100A0
:1035800008B5072805D8DFE800F006090E12141464
:103590001414042008BDFFF743FF0AE0FFF75EFEA6
:1035A000400A086005E04FF400730B8001E001233E
:1035B0000B60002008BDFFFF70B590B003466A465F
:1035C0006E4600F14005144618685968083303C474
:1035D000AB422246F7D1084D4024EC6100219B20EC
:1035E000FFF7E8FE21463046FFF782FEAC61AC6192
:1035F000AC6110B070BD00BF00C0092070B50646B8
:10360000074D402400217720EC61FFF7D3FE2146CF
:103610003046FFF76DFEAC61AC61AC6170BD00BFC0
:1036200000C0092008B5064B198831F01F0104D0ED
:10363000FFF714FEB0FBF1F008BD084608BD00BF5F
:1036400076C50720014B1888704700BF76C5072054
:10365000024B1878003018BF0120704776C507204C
:103660002DE9F7434FF0FF330F4691460193804613
:10367000FFF7D6FEFFF7ECFF0646B8B1194C402520
:10368000194BE5611B880320B3F5847F0CBF4FF411
:1036900080714FF400713943FFF78CFE04210DEB6C
:1036A0000100FFF725FEA561A561A5610D4C402332
:1036B00039468220E361FFF77DFE012249464046FC
:1036C00002F01CFB3EB1019B02A8013340F8043D0F
:1036D0000421FFF70DFE4023A361A361A36103B0A2
:1036E000BDE8F08300C0092076C5072037B5084B38
:1036F000084C1868402504210190E5610DEB01009C
:10370000FFF7F6FDA561A561A56103B030BD00BF5F
:10371000CB06020000C009201FB501A802F01CFA68
:103720009DF808309DF8092003F01F0302F00F02F6
:103730001B0443EA42519DF806309DF8040003F053
:103740001F0341EAC3229DF80530C0F3440003F093
:103750003F0342EA4313BDF80A201843520602F120
:103760000842104305B05DF804FB30B504460D1F58
:10377000131B0344032B04D955F8043F44F8043BBE
:10378000F6E79408A3001944A2EB8402013B184415
:103790000A44914204D011F8013B00F8013FF8E7D8
:1037A00030BD0244904202D000F8011BFAE7704796
:1037B00000F10B010023DA0142EA530310F8012B58
:1037C0001344884203F0FF03F5D11846704703689D
:1037D00010B50446B3B119460A4611F8010B1F286B
:1037E00002D93A28F8D101E0002010BD591C8A42C4
:1037F00008D11B78303BD9B2012903D801321846D1
:10380000226010BD4FF0FF3010BDF8B5056B00F120
:103810003407044601232A4639464078FFF74BF91E
:10382000A0B9636AE269EB1A9342207101D30020C8
:10383000F8BDE678012EFAD9E36939461D442A46D7
:1038400001236078FFF737F9013EF3E70120F8BD67
:1038500003790BB1FFF7D9BF1846704770B504461E
:10386000FFF7F6FF054680BB2378032B25D163794C
:10387000012B22D104F1340601464FF40072304688
:10388000FFF78FFF4AF65522A4F832220F4A31463D
:10389000626302F1FF5202F500522032C4F818228E
:1038A00062696078C4F81C222269C4F82022226A66
:1038B00001322263FFF7FFF865710022114660783C
:1038C000FFF715F9003018BF012070BD5252614159
:1038D000036B70B58B4205460E4610D0FFF7B8FF5C
:1038E000044608B101240BE00123324605F13401FE
:1038F0006878FFF7C4F80028F4D12E6300E00024B4
:10390000204670BD002310B503714FF0FF330363F1
:103910000446FFF7DDFFA0B94AF65523B4F832227A
:103920009A4210D1D4F86A30084A23F07F43934278
:103930000AD0D4F8860020F07F40801A18BF0120FA
:1039400010BD032010BD022010BD00BF4641540031
:103950002DE9FF4100230360074608461546FFF79F
:1039600036FF061EC0F2FA80854B53F82640002C25
:1039700000F0F680E068FFF745F8002800F0F280DC
:103980003C60237883B16078FFF771F8C1070BD4EE
:10399000002D00F0E98000F0040303F0FF00002B8D
:1039A00000F0EB800A20E8E00023F0B223706070A2
:1039B000FFF74AF8C20700F1D9800DB14307F1D4EF
:1039C00000212046FFF79EFF01281CD1214600223E
:1039D00091F8F6310BB1D1F8FA314DF822300132BD
:1039E000042A01F11001F3D100265DF826502DB113
:1039F00029462046FFF786FF08B90BE00220013672
:103A0000042EF2D100E00025032800F0B18008B1B7
:103A10000D20B2E0B4F83F30B3F5007FF8D1B4F830
:103A20004A6006B9A66D94F844E0E6610EF1FF33F2
:103A3000012B84F803E0EBD894F84130A370002BFD
:103A4000E6D05A1E1A42E3D1B4F845C01CF00F0F5D
:103A5000A4F808C0DCD1B4F8472002B9626DB4F80C
:103A600042100029D4D006FB0EFE01EB1C17774450
:103A7000BA42CDD3D21BB2FBF3F3002BC8D040F631
:103A8000F572934203F1020005EB01022F4410D9B5
:103A90004FF6F5718B426DD9A06125626262E762D3
:103AA000BCF1000FB4D1236E4FF00308A362830072
:103AB00018E04FF00108A06125626262E762BCF184
:103AC000000FA5D0B8F1020F4FEA400318BF1B1832
:103AD000724418BF00F00100A2621CBF00EB530348
:103AE0004FF0010803F2FF13B6EB532F90D34FF0C2
:103AF000FF3363612361B8F1030F4FF080036371FB
:103B000022D1B4F86430012B1ED1691C2046FFF786
:103B1000DFFEC8B94AF65523B4F8322260719A42E2
:103B200012D1626B174B9A420ED103F1FF53D4F8B6
:103B3000182203F5005320339A4201BFD4F81C32F7
:103B40006361D4F8203223610F4A84F8008013881F
:103B5000002001339BB21380E3800EE00B200CE0C9
:103B60000C200AE00F2008E0284606E0032004E0CD
:103B7000012002E04FF002089DE704B0BDE8F081AB
:103B800084C507205252614180C5072010B5044604
:103B9000A8B103689BB11A788AB1D988828891420A
:103BA0000DD1D868FEF72EFF58B123685878FEF77C
:103BB0005EFF10F0010F14BF0320002010BD09208C
:103BC00010BD0F2010BD50B10F2905D84FF41A4376
:103BD00023FA01F1CB0702D4C068FEF726BF704775
:103BE00083690239023B99423DBF8378C06A01FB79
:103BF0000300002070470129F8B507460C464BD951
:103C00008369994248D20378022B29D0032B34D000
:103C1000012B41D101EB5106416A01EB5621FFF71F
:103C200057FE10B14FF0FF30F8BD796AC6F30803B4
:103C300001363B4401EB5621384693F83450FFF7E8
:103C400047FE0028EED1C6F308063E4496F834003D
:103C5000E30745EA00204CBF0009C0F30B00F8BDA4
:103C6000416A01EB1421FFF733FE0028DAD163002B
:103C700003F4FF73FE18B08EF8BD416A01EBD41156
:103C8000FFF726FE0028CDD1A40004F4FE743C44C6
:103C9000606B20F07040F8BD0120F8BD70B504469F
:103CA00082680D46012AE18001D1022070BD0368BF
:103CB00099698A42F9D252B91978032901D1996ACE
:103CC00021B919898D42F0D2986A15E00A469E788A
:103CD0003601B542114620680CD3FFF78CFF431C18
:103CE000024618D00128E0D923689B699842DCD2AB
:103CF000AD1BEEE7FFF774FFE2600028D5D0236824
:103D000000EB1510343305F00F0503EB451520616A
:103D10006561002070BD012070BD0129F8B5054620
:103D20000C46164660D9836999425DD20378022B0E
:103D300039D0032B43D0012B52D101EB5107416AFB
:103D400001EB5721FFF7C4FD00284AD1C7F3080350
:103D500014F001042B4417BF93F83420F2B202F0A0
:103D60000F0132011CBF02F0F0020A4383F8342035
:103D7000696A013701232B7101EB57212846FFF7B0
:103D8000A7FD70BBC7F308072F4414B1C6F307168D
:103D900006E097F83430C6F3032623F00F031E43E2
:103DA00087F834601DE0416A01EB1421FFF790FDB4
:103DB000B8B9640004F4FF742C44A68611E0416A8B
:103DC00001EBD411FFF784FD58B9A40004F4FE748C
:103DD00030342C44636803F070431E43666000E097
:103DE000022001232B71F8BD0220F8BDF8B505466D
:103DF0000F4631B9066996B183699E4228BF0126F4
:103E00000EE0FFF7F8FE01283FD9441C02D14FF025
:103E1000FF30F8BDAB69984238D33E4600E001263A
:103E20003446AB6901349C4204D3012E01D80020F2
:103E3000F8BD022421462846FFF7DDFE30B1411CC3
:103E4000E5D0012821D0B442EBD1F0E76FF0704209
:103E500021462846FFF761FFA8B957B96B692C6165
:103E60005A1C0ED0013B6B616B7943F001036B71FF
:103E700007E0224639462846FFF74FFF0028EDD0DD
:103E800001E02046F8BD0128C1D00120F8BD2DE990
:103E9000F843C68804460136B3B20F4613B904206E
:103EA000BDE8F8830369002BF9D016F00F0859D14B
:103EB000C16801330361006819B903899E42EED2DB
:103EC00050E08378013B13EA16134BD1FFF793FEC2
:103ED0000128054602D80220BDE8F883421C02D121
:103EE0000120BDE8F883206883699D4234D3002F08
:103EF000D5D0E168FFF77AFF054600283BD00128BE
:103F0000E9D0431CECD02068FFF7A2FC074600284C
:103F1000E6D120684FF4007239463430FFF741FC97
:103F2000226829461046FFF75BFE4FF00109106337
:103F300023689A7897420CD283F804902068FFF7A0
:103F400087FC0028CCD122680137136B013313633F
:103F5000EEE71A6BD71B1F63E56029462068FFF761
:103F60003FFE20612368E680343303EB481363612E
:103F70000020BDE8F8830720BDE8F8832DE9F74F5E
:103F80004FF6FF794FF0FF0806464446A0F8209010
:103F900031693068FFF79CFC00287BD175692B786C
:103FA000002B6ED0E52B60D0E97A0F0701F03F02BD
:103FB00002D50F2A59D101E00F2A42D1D6F81CB000
:103FC000BBF1000F56D0580605D503F0BF04F388A7
:103FD0006A7B338402E0A3424BD1424695F80D80C0
:103FE000904545D12F78012027F040077B1E0D27F3
:103FF0005F434FF0000A294B1AF80320AA5A88B1F0
:104000001046FEF7E1FC7F2F019032D87A1C3BF876
:1040100017000092FEF7D8FC0199814229D1009A3D
:10402000174601E04A4524D10AF1010ABAF10D0F01
:10403000E1D12B7859062AD548B33BF8173033B372
:1040400017E024B92846FFF7B3FB40451BD0B369FE
:10405000DA7AD20709D405F10B00854215D015F89C
:10406000011B13F8012B9142F7D0A6F8209000E035
:104070009046FF2400213046FFF709FF002887D033
:1040800008E0042006E0204604E0002002E0013CB5
:10409000E4B2EFE703B0BDE8F08F00BFD007020045
:1040A0002DE9F74F0B7807462F2B884601D05C2B64
:1040B00001D108F101080024BC6098F800301F2BE2
:1040C00062D821463846FFF7E9FD7C6113E10131F2
:1040D0003BF81120202AFAD02E2AF8D009B144F05A
:1040E00003044A4632F8020D2E2801D0013EF9D1D0
:1040F0004FF0000A55464FF008093BF811004A1CE2
:10410000002840F08F80BB691A78E52A04BF052299
:104110001A70B9F1080F04BFAD00EDB205F00C0341
:104120000C2B00F0CC8005F00302032A00F0C780BE
:10413000A10709D405F00305012D08BF44F01004C0
:10414000042B08BF44F00804BB690021DC72384628
:10415000FFF7A4FD10B93846FFF710FFBB69DB7A03
:10416000002840F0AF805A0700F1C5807A69D37A01
:10417000DB0640F1AE803968538B0978032904BF10
:10418000928A43EA0243BB6098F8003044462F2BE2
:1041900008F10108F8D05C2BF6D0D7F81CB004F178
:1041A000FF39ABF10205002619F8010F06F10108ED
:1041B0001F281AD92F2818D05C2816D0B8F1810FE3
:1041C00000F093800121FEF7E1FB002800F08D80D4
:1041D0007F2806D8494911F8012F12B19042FAD12F
:1041E00083E025F8020F4646DEE72028A0440BEBCB
:1041F000460234BF04240024002E76D032F8021D7B
:10420000202901D02E2901D1013EF5E700252021EA
:104210002BF816500B22B869FFF7C3FA0BEB4609CF
:10422000294655E7202803D02E2805D1B24208D0D0
:1042300044F00304114660E7CA4504D2B24218D1E3
:1042400055E0CA4553D3B9F10B0F04D144F0030430
:104250004FF00B0957E7B24203D044F003043FF696
:1042600052AFAD00EDB232464FF00B094FF0080AE5
:10427000E0E77F280CD900210192FEF787FB019A25
:1042800018B11F4B184410F8800C44F0020428B1F8
:104290001C4B13F8011F29B18842FAD144F00304E2
:1042A0005F2006E0A0F1410189B2192913D845F039
:1042B0000205B96901F80A000AF1010ABAE744F0F7
:1042C000020435E7042816D113F0040F08BF0520B7
:1042D00011E005200FE0A0F1610189B219299EBF0C
:1042E000203845F0010580B2E3E7062003E0B9F18C
:1042F0000B0FB6D1AAE703B0BDE8F08FF5060200B8
:1043000050070200FE0602002DE9F047846986B0DE
:104310000C22C669054621460DEB0200FFF725FA7F
:104320009DF81730DB0762D50023E3720127EB61AC
:104330000B2203A92046FFF718FA052F01D83B46A8
:1043400015E03B46B01E30F8022F82B1102102F07A
:10435000010E0EEB430313F4803F1CBF83F488333C
:1043600083F0210301394FEA5202F0D1EBE7072233
:1043700003F00F0000F13001392988BF00F1370147
:10438000013A01A810441B094170F1D106A97E2011
:10439000114401F8140C9A4204D0E15C202901D0A8
:1043A0000133F8E72344072A9DBF06A9891811F8AD
:1043B000141C202103F8011BA3EB040198BF013258
:1043C0000729F0D900212846FFF768FC40B92846A4
:1043D000FFF7D4FD20B90137642FA9D107209FE052
:1043E000042840F09D809DF81730E372EE619DF83F
:1043F00017309B070AD5002436F814300BB101346E
:10440000FAE719340D23B4FBF3F400E00124002192
:104410002846FFF743FC00287FD106462969286813
:10442000FFF756FA002878D16B691B78E52B00D08E
:104430002BB90136B44203D1013C53D007E0064604
:1044400001212846FFF723FD0028E7D065E0E98831
:104450002846091BFFF722FC002861D1A869FFF755
:10446000A7F90646DFF8C0800F2729692868FFF7FB
:104470002FFA0346002853D16A695FFA84FED5F803
:104480001CC00EF1FF31107350830D2041434FF6D5
:10449000FF7918465673D772484518BF3CF811008B
:1044A00013F808A003F1010318BF013122F80A0034
:1044B000002808BF48460D2BEED14FF6FF739842F7
:1044C00002D03CF811300BB94EF0400E82F800E0FB
:1044D0002B6801221A7100212846FFF7D8FCF8B991
:1044E000013CC2D129692868FFF7F2F9044690B966
:1044F000202221466869FFF754F90B22A9696869EF
:10450000FFF733F9AB696A69DB7A03F018031373B9
:104510002B6801221A71204602E0042808BF0720F8
:1045200006B0BDE8F08700BFD0070200012970B5D2
:1045300004460D4601D8022070BD83699942FAD223
:10454000A3699D4205D229462046FFF754FB064643
:1045500008B9002070BD0128EDD0411C10D0002208
:1045600029462046FFF7D9FB58B963695A1C05D084
:1045700001336361637943F0010363713546DFE71B
:10458000012070BDF0B585B0019004A840F8041D6D
:1045900000911646FFF71BF9041E2ADB174B53F850
:1045A00024501F463DB1E868FEF72AFA08B90220F8
:1045B00022E000232B70019921B9019847F82400CB
:1045C00048B919E0002301F80C3BE0B2FEF70EFAFF
:1045D0000028ECD0F1E7012E0DD10022694601A898
:1045E000FFF7B6F9044601460198FFF7ECFA2046BA
:1045F00002E00B2000E0002005B0F0BD84C50720DC
:104600002DE9F043D1B0019190460546002800F015
:1046100085800023036002F01E0201A906A8FFF7AF
:1046200097F90646002873D103AB0C9301990FABA1
:1046300006A80D93FFF734FD0B9C10B9002C08BFA2
:10464000062018F01C0F08F01F073CD050B10428BA
:1046500002D106A8FFF758FE47F00807002864D1EA
:104660000B9C06E0E37A13F0110F5DD118F0040FF4
:1046700056D1380735D5FFF74FF80023C4F80E00A0
:104680000698E372E3610278B4F81A80032A08BF3F
:10469000A28A6383A38208BF48EA02480123037108
:1046A000B8F1000F1BD04146D0F83090FFF73EFF25
:1046B00000283AD1069808F1FF3303614946FFF715
:1046C00007F950B131E000282FD1E37AD90629D477
:1046D00018F0020F01D0DA0726D43B0701D547F0C6
:1046E0002007069B1A6BAF71EA610022EA712C6207
:1046F0001978628B032904BFA18A42EA01422A6128
:10470000E2692B60DB88EA600022AA60AA61AB80C4
:1047100006983146FFF757FA304608E0092006E0D0
:10472000082002E0042000E007200646F0E751B030
:10473000BDE8F0832DE9F74F9A460023CAF8003010
:10474000054688461446FFF721FA064628B1014679
:104750002868FFF738FA3046A1E0E97921B12868E6
:10476000FFF731FAE8799AE0AB79D80705D42868E1
:104770000721FFF728FA072091E0EB68A86805F108
:10478000240B181A844228BF0446002C00F08280B3
:10479000AA68C2F30803002B63D128688378013B21
:1047A00003EA522313F0FF030ED10AB9286904E08B
:1047B00069690193FFF71FFA019B012801D80224C0
:1047C0004CE0411C49D06861D5F8009069694846C1
:1047D0000193FFF705FA019B20B90224EC712146F1
:1047E000484659E0660A00EB03071DD099F80220FD
:1047F0009919914288BFD61AF3B23A46414699F8C0
:104800000100FEF73CF940BBAB795A060AD5A8690E
:10481000C01B864206D94FF40072594608EB40206F
:10482000FEF7A3FF76022AE0AA69974218D0AB7977
:104830005B060AD50123594699F80100FEF73BF9BA
:1048400058B9AB7923F04003AB71286801233A468D
:1048500059464078FEF713F910B10124EC7119E0C4
:10486000AF61A9684046C1F30801C1F50076A642D0
:1048700028BF2646294432462431FEF776FFAB682E
:10488000B0443344AB60DAF80030A41B3344CAF8B8
:1048900000307AE721462868FFF795F9204603B0F3
:1048A000BDE8F08F2DE9F74F9B460023CBF8003091
:1048B000044689461746FFF769F90546002863D183
:1048C000E17921B12068FFF77EF9E079B5E0A379BD
:1048D000990705D420680721FFF775F90720ACE098
:1048E000A368DF4246D204F1240301932DE07D0A40
:1048F00000EB060872D09AF8023072199A4288BF0B
:104900009D1BEBB2424649469AF80100FEF7D3F8E8
:10491000002872D1A169C8EB01018D420AD94FF478
:10492000007209EB41210198FEF71FFFA37923F0E4
:104930004003A3716D02A368A9442B44A360DBF874
:1049400000307F1B2B44CBF800309FB1A368C3F32A
:104950000802002A55D120688678013E06EA5326CF
:1049600016F0FF061ED1ABB9216949B9FFF73EFA2F
:10497000014628B9A368E268934255D9E36053E041
:10498000012909D10225E57129462068FFF71BF9A5
:10499000284652E06169E9E74A1C2ED0236961612B
:1049A00003B92161A3795B060BD520680123A269B5
:1049B00001994078FEF77FF8F8B9A37923F0400316
:1049C000A371D4F800A061695046FFF709F90028E7
:1049D0008DD10225E57129465046D7E7A369984550
:1049E0000DD0A268E3689A4209D201234246019998
:1049F0009AF80100FEF743F808B10125C3E7C4F8AF
:104A00001880A0684946C0F30800C0F50075BD4293
:104A100028BF3D4620442A462430FEF7A6FEA3794F
:104A200043F04003A37186E7A379206843F0200395
:104A3000A3710021FFF7C7F8002003B0BDE8F08F95
:104A400070B50446FFF7A2F80546002838D1A379CF
:104A50009A0635D55B0612D520680123A26904F1B8
:104A600024014078FEF727F828B120680121FFF7DC
:104A7000AAF8012070BDA37923F04003A371E16976
:104A80002068FEF725FF0546D0B9266AF37A43F081
:104A90002003F372E368F361236973831B0CB38211
:104AA000FEF73AFE7582C6F81600A379012223F0BC
:104AB0002003A37123681A712068FEF7CFFE054614
:104AC00020682946FFF77FF8284670BD38B50546AF
:104AD000FFF7B6FF044648B92846FFF757F80446E3
:104AE00020B9286821462C60FFF76DF8204638BDB4
:104AF00070B504460E46FFF749F8054670BBE179EC
:104B000021B12068FFF75FF8E07970BDE368B34238
:104B100004D2A27912F0020F08BF1E460022A36839
:104B2000A260002E7AD0206885786D026BB1013BBF
:104B3000721EB2FBF5F2B3FBF5F18A4205D36A426D
:104B40001340A360F61A616912E0216979B9FFF791
:104B50004DF90128014607D10225E5712946206853
:104B6000FFF731F8284670BD013054D021616161F2
:104B7000B1B900262FE0A37920689A0713D5FFF773
:104B800035F9014698B14B1C45D00129E4D9236879
:104B90009B699942E0D2A36861612B44A360761BB4
:104BA000AE42E8D804E0FFF726F80146EBE72E46D0
:104BB000A3683344A360C6F30803002BD9D022684E
:104BC0001046FFF70DF820B90225E5712946104679
:104BD000C6E700EB5626A368C3F30803F3B1A26946
:104BE00096421BD0A37904F1240513F0400F0AD09C
:104BF0002068012329464078FDF75DFF58B9A37965
:104C000023F04003A37120680123324629464078EF
:104C1000FDF735FF08B101259FE7A661A368E268AB
:104C20002068934284BFE360A3794FF0000184BF02
:104C300043F02003A371FEF7C6FF002070BD2DE9ED
:104C4000F347144602AB43F8040D88462046002281
:104C50001946FEF77DFE2468054600284CD1A76959
:104C60006369BA1E934202D8C8F8003044E094F851
:104C70000090B9F1010F10D10646022739462046AF
:104C8000FEF7B9FF431C2BD001282BD000B9013609
:104C9000A36901379F42F1D327E003460246064647
:104CA000616A52B9204601F1010AFEF711FED8B936
:104CB000514604F134034FF40072B9F1020F05D1EB
:104CC000188800B901360233023A06E0186820F06D
:104CD000704000B901360433043A013FE1D104E0E9
:104CE000012502E0022500E005466379666143F094
:104CF00001036371C8F8006020462946FEF763FF90
:104D0000284602B0BDE8F0872DE9F04F89B008AB26
:104D100043F80C0D18460E461546FEF758FD0028C0
:104D2000C0F20882012E00F207826B1E2B4040F079
:104D30000382BF4A52F82040002C00F0FF81C7B226
:104D400023703846FDF780FEC20700F1F981430762
:104D500000F1F88107AA01213846FDF7C8FE08B125
:104D6000012040E207997F29FAD9002E14BF4FF0A5
:104D7000000A4FF03F0ACAEB010107916DB94FF4E9
:104D8000FA63B1FBF3F3AB4830F81520934201D23C
:104D90000135F9E7A84B33F815506D0A03D0812D82
:104DA00028BF802500E00125B1FBF5F340F6F57240
:104DB000934240F203824FF6F572934240F20E8224
:104DC0009B0003F207235B0A019300234FF00308C3
:104DD00003934FF0200B0BEB0A030293039A019B02
:104DE00003EB0209029B9944CAEB05034B44994229
:104DF00001D20E20F7E106AA03213846FDF777FE1F
:104E000020B9069B013BB3F5004F01D30123069364
:104E1000069AB8F1030F02F1FF334B44C2F10002CE
:104E200003EA0203C9EB0303069304D1029A9B44ED
:104E30001A44029202E0019A1A440192079A0199D7
:104E4000CBEB02035B1A0399B8F1020FA3EB01034A
:104E5000B3FBF5F3049305D140F6F5730499994239
:104E6000C7D916E0B8F1030F05D14FF6F573049AD0
:104E70009A42BED982E1B8F1010F0AD1B2F5803F62
:104E800034BF4FF001094FF00609002E40F05C815D
:104E900007E0B2F5803F34BF4FF004094FF0060938
:104EA000BEBB04F134064FF4007200213046FEF719
:104EB00078FC43F6C160DDF81CE0FE2184F8F711B0
:104EC0000AEB0E01B1FBF0F18808069184F8F911A4
:104ED0003F21C4F8FA114AF65521012340F03F0062
:104EE000002284F8F801A4F8321284F8F33184F82F
:104EF000F43184F8F52184F8F691C4F8FEE13146E6
:104F00003846FDF7D8FD00287FF42AAF4FF0F809A6
:104F100001E04FF0F00904F134064FF40072002173
:104F20003046FEF73EFC0B2244493046FEF71DFC9E
:104F30004FF40073B8F1030FA4F83F304FF00103B2
:104F400084F8443084F84150A4F842B00CBF0023E8
:104F50004FF40073A4F84530079B84F84990B3F5EB
:104F6000803F34BFA4F8473063653F23A4F84C303A
:104F7000FF23A4F84E30C4F850A0FEF7CDFBB8F1E3
:104F8000030F069016D1019BC4F87700A365022396
:104F900023660123A4F864300623A4F86630802336
:104FA00084F87430292384F876301322244904F1DC
:104FB0007B000FE0BDF804302249A4F84A3080237A
:104FC00084F858302923C4F85B0084F85A3013223F
:104FD00004F15F00FEF7C9FB4AF655235246A4F8D8
:104FE0003232314601233846FDF765FD00287FF453
:104FF000B7AEB8F1030F06D101230AF1060231461C
:105000003846FDF758FD4FF4007200213046FEF798
:10501000C8FBB8F1030F19D00B4BB8F1010F18BF43
:105020006FF0FF0343EA09030693636318E000BFD0
:1050300084C50720E00602003A07020006070200C6
:10504000120702002607020000FFFF0069F0FF03BD
:10505000069363634FF0FF33A3636FF07043E36322
:10506000029B314603F10109029A01233846FDF7FC
:1050700022FD014600287FF473AE4FF400723046E3
:10508000FEF78FFB01230693069B019A9A420FD9E4
:1050900001234A463146384609F1010BFDF70BFD65
:1050A00000287FF45DAE069BD94601330693EBE7FB
:1050B000039B4A46B8F1030F18BF1D464D44012318
:1050C0003146384602F1010BFDF7F5FC00287FF46C
:1050D00047AEAB455A46F2D1B8F1030F21D1434B4D
:1050E0003146636303F1FF5303F500532033C4F8E3
:1050F0001832049B3846013BC4F81C320223C4F822
:1051000020324AF65523A4F8323201230AEB030277
:10511000FDF7D1FC01230AF1070231463846FDF7BD
:10512000CAFC002211463846FDF7E1FC003018BFEA
:10513000012058E00B2056E0132054E00C2052E0F0
:10514000032050E00A204EE004F134064FF40072D0
:1051500000213046FEF725FB0B2225493046FEF79D
:1051600004FB4FF40073A4F83F3084F84150A4F8D6
:1051700042B084F844804FF0F009EBE6DEB104F170
:1051800034064FF4007200213046FEF70AFB0B2272
:1051900017493046FEF7E9FA4FF40073A4F83F30A0
:1051A000012384F8443084F84150A4F842B04FF011
:1051B000F0090023CEE64FF00C0972E603EB43033F
:1051C00001335B0803334FF0010803F2FF135B0A5E
:1051D0000193202303934FF0010BFCE502335B00A6
:1051E0004FF00208F1E709B0BDE8F08F525261417B
:1051F00006070200F8B50D4616461F4608B90120FD
:10520000F8BD0029FBD00468002CF8D0069B3A4674
:1052100031462068A84708B16468F5E7F8BDFFFF8C
:10522000F0B50024ADF50D7D0D460746029402F061
:1052300083FD4FF47A72002303F0C0FF4FF409722C
:105240000646214603A804F0E0FADDB112221D490A
:1052500003A8FFF7D5F9044680B9069903A8FFF71C
:1052600047FC044630B902AB2A46394603A8FFF78B
:1052700019FB044603A8FFF729FC04E0124805F0D7
:1052800051FC00E02C4602F057FD4FF47A720023E7
:1052900003F094FF0D4B801B1A889042029A88BF3E
:1052A000188095420CBF0126002606D0059B21469A
:1052B000009307482B4605F035FC30460DF50D7D73
:1052C000F0BD00BFDD070200E707020090C5072020
:1052D000FB0702002F4B2DE9F74F1D68DFF8BC904C
:1052E0002E46DFF8BCA005F5806802AF002347F822
:1052F000043D4EF660223946D9F8000001F0CCFC9E
:1053000008B1019B2BB9711B2846FFF789FF2E4678
:10531000EBE7D9F8000001F08BFDBAF80030019CF2
:105320000130984288BFAAF80000204605F029FF06
:105330000A23235400F1010B019A002106EB0B0410
:1053400002F80B10A045019916D8C6EB08023046AA
:1053500004F035FAC8EB04044FF480612846FFF7E7
:105360005FFF3CB10199C4EB0B0322461944284668
:1053700004F025FA2C4403E05A46304604F01FFAA4
:10538000054800234FF0FF323946006801F07EFBEC
:105390002646AAE794C5072098C507208CC5072094
:1053A0009CC507202DE9FF412D4D80462C68002C1F
:1053B00052D14FF48060039404F0C2F9294E286062
:1053C00040B92868002833D004F0C2F9244B0022E9
:1053D0001A602DE0224604210A2001F03DFB224FF5
:1053E0002246386004210A2001F036FB3B68306019
:1053F000002BE6D00028E4D00A24962004F0A0F97F
:1054000003900028DDD000231A4603A9306801F07C
:105410003DFB013CF1D10194CDF8008023464FF4CF
:10542000C0721249124801F08FFD0028C9D013E064
:1054300033681BB90F4805F0E7FB0DE00A24002391
:105440001A4603A9306801F027FC10B1039804F054
:105450007FF9013CF3D1EDE704B0BDE8F08100BF76
:1054600094C5072098C507208CC507202E08020088
:10547000D55201003508020010B5044602F0F2F9D9
:10548000013C14F8010F10B102F05EFEF9E7BDE82F
:10549000104002F0F7B90FB470B5C2B046AC54F882
:1054A000046B4FF480752A46002102A804F0ADF980
:1054B00023463246294602A8019406F0D9FF044645
:1054C00002A8FFF7D9FF204642B0BDE8704004B003
:1054D000704713B500230C4602A941F8043D00684B
:1054E00001F0A8FB019B1BB1236843F0010323607B
:1054F000012002B010BD30B5044685B001A80D46AC
:1055000000F02AFB9DF80630227903F01F039A422F
:105510001BD19DF80530627903F03F039A4214D104
:105520009DF80430A27903F03F039A420DD104A9FB
:10553000002341F8103D2368186801F07BFB009BB5
:105540001BB12B6843F001032B60012005B030BD77
:1055500030B5244A87B01378234C43F0010313700D
:10556000002503A8029500F0F7FA2B46009502AA41
:105570001E492068FFF73EFE9DF80C3013F03F03F4
:105580001BD1009302AA19496068FFF733FE9DF80A
:105590000D3013F03F0310D1009302AA1349A06805
:1055A000FFF728FE9DF80E3013F01F0305D100937E
:1055B00002AA0E49E068FFF71DFE00230C48009385
:1055C00002AA0C490068FFF715FE029B3BB10A4B8B
:1055D0004FF080521A60BFF34F8FBFF36F8F07B049
:1055E00030BD00BF00400240A0C50720D3540100D9
:1055F000B0C50720F754010004ED00E070B5064681
:1056000002F09AFB841941F1000502F095FBA942D2
:1056100008BFA042F9D370BD08B502F029F8831E77
:105620005842584108BD10B50446FFF7F5FF20B1B8
:105630002046BDE8104001F0CDBE4FF47A706043C3
:10564000BDE81040FFF7DABF012A0170427006D0B2
:1056500003D3022A03D1034B02E0034B00E0034BC8
:105660004360704740C0092000C0092020C00920C5
:10567000416800780A680123834022EA03030B6033
:105680007047416800780A680123834013430B6028
:1056900070470178426801238B409361704701781D
:1056A000426801238B40D3617047704708B50120E1
:1056B00001F070FA014B186008BD00BFB4C50720A7
:1056C000074A0121136801FA00F023F0E06323F098
:1056D000FF031360136843F0807303431360704744
:1056E0000040034007B500230D4A019352680D485E
:1056F000C2F30B12ADF802200DF1020101AA0068FD
:1057000001F05AFA019B3BB1074B4FF080521A60EF
:10571000BFF34F8FBFF36F8F03B05DF804FB00BF83
:1057200000400340B8C5072004ED00E010B502F0CA
:105730007DFC0121C4080C2002F098FA03210C2002
:1057400002F0ACFA114A4FF400131149136002231E
:10575000B4FBF3F0884204D8116841EA03231360D4
:1057600003E00233B3F5807FF2D1012001F012FA99
:10577000084B002218600221012001F06DF9064B50
:105780004FF480021860054B1A6010BD00400340C2
:105790003F5DC600BCC50720B8C5072000E100E09A
:1057A000F7B507284FF000040546ADF806402AD8A3
:1057B00001F05EFF0228164E19D1164F23462146EE
:1057C0004FF0FF32386801F067FA2846FFF778FF9C
:1057D00023460DF106014FF0FF32306801F05CFA0C
:1057E000234622462146386801F050F90BE028464E
:1057F000FFF766FF00231A460DF10601306801F03D
:105800004BFA0028F6D0BDF8060003B0F0BD00BF8B
:10581000B8C50720BCC50720026830B5D36913F0AE
:10582000040310D002F1300301F1100451F8045BBD
:10583000A14243F8045BF9D1438A01334382212317
:105840005360012030BD184630BDFFFF2DE9FF41F8
:10585000254D440155F804802F19D8F80C60D8F86C
:1058600008303343D90719D5786801F0EAFAFB8983
:1058700008F12001984288BFF88100232F191A46A9
:10588000786801F099F918B1BB8A0133BB8202E054
:10589000BB890133BB810423C8F8043040F20263A2
:1058A000334093B12F19B86801F0CBFA3B8A00223C
:1058B000984288BF38822F196946B86801F086FA85
:1058C00018B169463846FFF7A7FFB20603D52B1972
:1058D0009B6930469847330703D52C44E36930462B
:1058E000984704B0BDE8F0810CC00720084B10B504
:1058F000D3F8C440A20402D50020FFF7A7FF630439
:1059000004D5BDE810400120FFF7A0BF10BD00BFC7
:1059100000C00F4070B505460E4614467CB12B689A
:105920006BB12268134208D06368984722682B68DD
:1059300023EA02032B6023683360A468EEE770BD9E
:10594000F8B5012484400F4616461D4610D079B1A3
:105950000C2003F0F5FE58B133682A688360054BCC
:1059600080E8900014434FF4001230602C601A60FD
:10597000F8BD00BF00E100E01FB5184C184963688E
:1059800068460093A3680193636A0293A36A039332
:10599000144B1A68FFF7BEFF134B11491A6801A890
:1059A000FFF7B8FF114B12491A6802A8FFF7B2FFC0
:1059B000104B0F491A6803A8FFF7ACFF009B0BB907
:1059C000019B13B14FF0FF33E360029B0BB9039BC4
:1059D00013B14FF0FF33E36204B010BD808002408A
:1059E0008C800240C8C50720CCC50720C0C5072051
:1059F000AC800240C4C5072010B414460029064AF2
:105A00000649074B18BF1346064A18BF0A462146E7
:105A100010BCFFF795BF00BF94800240CCC50720A3
:105A200090800240C8C5072070B5174B0E465C69D0
:105A3000164B05461A6C1A2022F470021A641A6C6E
:105A400004F4406442F420021A64996E41F4406107
:105A50009966196821F470011960196841F42001F0
:105A60001960032102F01AF902F0E0FAB4F5406F70
:105A700006D13246C1082846BDE8704000F072BB2E
:105A800001236B71002070BD00C0092000C00240DE
:105A900010B50446024900F03DFB204610BD00BF92
:105AA00000000A4038B5074C236833B93420FAF7B0
:105AB000E7FB0546FFF7ECFF25602068BDE83840AE
:105AC00000F016BD2CC3072008B5044B1B6898478F
:105AD000034A137A43F00103137208BDD0C50720AF
